{
  "contractName": "MintableNFT",
  "abi": [
    {
      "inputs": [],
      "stateMutability": "nonpayable",
      "type": "constructor"
    },
    {
      "anonymous": false,
      "inputs": [
        {
          "indexed": true,
          "internalType": "address",
          "name": "owner",
          "type": "address"
        },
        {
          "indexed": true,
          "internalType": "address",
          "name": "approved",
          "type": "address"
        },
        {
          "indexed": true,
          "internalType": "uint256",
          "name": "tokenId",
          "type": "uint256"
        }
      ],
      "name": "Approval",
      "type": "event"
    },
    {
      "anonymous": false,
      "inputs": [
        {
          "indexed": true,
          "internalType": "address",
          "name": "owner",
          "type": "address"
        },
        {
          "indexed": true,
          "internalType": "address",
          "name": "operator",
          "type": "address"
        },
        {
          "indexed": false,
          "internalType": "bool",
          "name": "approved",
          "type": "bool"
        }
      ],
      "name": "ApprovalForAll",
      "type": "event"
    },
    {
      "anonymous": false,
      "inputs": [
        {
          "indexed": true,
          "internalType": "address",
          "name": "previousOwner",
          "type": "address"
        },
        {
          "indexed": true,
          "internalType": "address",
          "name": "newOwner",
          "type": "address"
        }
      ],
      "name": "OwnershipTransferred",
      "type": "event"
    },
    {
      "anonymous": false,
      "inputs": [
        {
          "indexed": true,
          "internalType": "address",
          "name": "from",
          "type": "address"
        },
        {
          "indexed": true,
          "internalType": "address",
          "name": "to",
          "type": "address"
        },
        {
          "indexed": true,
          "internalType": "uint256",
          "name": "tokenId",
          "type": "uint256"
        }
      ],
      "name": "Transfer",
      "type": "event"
    },
    {
      "inputs": [
        {
          "internalType": "address",
          "name": "to",
          "type": "address"
        },
        {
          "internalType": "uint256",
          "name": "tokenId",
          "type": "uint256"
        }
      ],
      "name": "approve",
      "outputs": [],
      "stateMutability": "nonpayable",
      "type": "function"
    },
    {
      "inputs": [
        {
          "internalType": "address",
          "name": "owner",
          "type": "address"
        }
      ],
      "name": "balanceOf",
      "outputs": [
        {
          "internalType": "uint256",
          "name": "",
          "type": "uint256"
        }
      ],
      "stateMutability": "view",
      "type": "function"
    },
    {
      "inputs": [
        {
          "internalType": "uint256",
          "name": "tokenId",
          "type": "uint256"
        }
      ],
      "name": "getApproved",
      "outputs": [
        {
          "internalType": "address",
          "name": "",
          "type": "address"
        }
      ],
      "stateMutability": "view",
      "type": "function"
    },
    {
      "inputs": [
        {
          "internalType": "address",
          "name": "owner",
          "type": "address"
        },
        {
          "internalType": "address",
          "name": "operator",
          "type": "address"
        }
      ],
      "name": "isApprovedForAll",
      "outputs": [
        {
          "internalType": "bool",
          "name": "",
          "type": "bool"
        }
      ],
      "stateMutability": "view",
      "type": "function"
    },
    {
      "inputs": [],
      "name": "name",
      "outputs": [
        {
          "internalType": "string",
          "name": "",
          "type": "string"
        }
      ],
      "stateMutability": "view",
      "type": "function"
    },
    {
      "inputs": [],
      "name": "owner",
      "outputs": [
        {
          "internalType": "address",
          "name": "",
          "type": "address"
        }
      ],
      "stateMutability": "view",
      "type": "function"
    },
    {
      "inputs": [
        {
          "internalType": "uint256",
          "name": "tokenId",
          "type": "uint256"
        }
      ],
      "name": "ownerOf",
      "outputs": [
        {
          "internalType": "address",
          "name": "",
          "type": "address"
        }
      ],
      "stateMutability": "view",
      "type": "function"
    },
    {
      "inputs": [],
      "name": "renounceOwnership",
      "outputs": [],
      "stateMutability": "nonpayable",
      "type": "function"
    },
    {
      "inputs": [
        {
          "internalType": "address",
          "name": "from",
          "type": "address"
        },
        {
          "internalType": "address",
          "name": "to",
          "type": "address"
        },
        {
          "internalType": "uint256",
          "name": "tokenId",
          "type": "uint256"
        }
      ],
      "name": "safeTransferFrom",
      "outputs": [],
      "stateMutability": "nonpayable",
      "type": "function"
    },
    {
      "inputs": [
        {
          "internalType": "address",
          "name": "from",
          "type": "address"
        },
        {
          "internalType": "address",
          "name": "to",
          "type": "address"
        },
        {
          "internalType": "uint256",
          "name": "tokenId",
          "type": "uint256"
        },
        {
          "internalType": "bytes",
          "name": "data",
          "type": "bytes"
        }
      ],
      "name": "safeTransferFrom",
      "outputs": [],
      "stateMutability": "nonpayable",
      "type": "function"
    },
    {
      "inputs": [
        {
          "internalType": "address",
          "name": "operator",
          "type": "address"
        },
        {
          "internalType": "bool",
          "name": "approved",
          "type": "bool"
        }
      ],
      "name": "setApprovalForAll",
      "outputs": [],
      "stateMutability": "nonpayable",
      "type": "function"
    },
    {
      "inputs": [
        {
          "internalType": "bytes4",
          "name": "interfaceId",
          "type": "bytes4"
        }
      ],
      "name": "supportsInterface",
      "outputs": [
        {
          "internalType": "bool",
          "name": "",
          "type": "bool"
        }
      ],
      "stateMutability": "view",
      "type": "function"
    },
    {
      "inputs": [],
      "name": "symbol",
      "outputs": [
        {
          "internalType": "string",
          "name": "",
          "type": "string"
        }
      ],
      "stateMutability": "view",
      "type": "function"
    },
    {
      "inputs": [
        {
          "internalType": "uint256",
          "name": "tokenId",
          "type": "uint256"
        }
      ],
      "name": "tokenURI",
      "outputs": [
        {
          "internalType": "string",
          "name": "",
          "type": "string"
        }
      ],
      "stateMutability": "view",
      "type": "function"
    },
    {
      "inputs": [
        {
          "internalType": "address",
          "name": "from",
          "type": "address"
        },
        {
          "internalType": "address",
          "name": "to",
          "type": "address"
        },
        {
          "internalType": "uint256",
          "name": "tokenId",
          "type": "uint256"
        }
      ],
      "name": "transferFrom",
      "outputs": [],
      "stateMutability": "nonpayable",
      "type": "function"
    },
    {
      "inputs": [
        {
          "internalType": "address",
          "name": "newOwner",
          "type": "address"
        }
      ],
      "name": "transferOwnership",
      "outputs": [],
      "stateMutability": "nonpayable",
      "type": "function"
    },
    {
      "inputs": [
        {
          "internalType": "string",
          "name": "tokenURI",
          "type": "string"
        }
      ],
      "name": "mintNFT",
      "outputs": [],
      "stateMutability": "payable",
      "type": "function"
    },
    {
      "inputs": [],
      "name": "withdraw",
      "outputs": [],
      "stateMutability": "nonpayable",
      "type": "function"
    }
  ],
  "bytecode": "0x608060405260006008553480156200001657600080fd5b506040518060400160405280600b81526020017f4d696e7461626c654e46540000000000000000000000000000000000000000008152506040518060400160405280600481526020017f4d4e46540000000000000000000000000000000000000000000000000000000081525081600090805190602001906200009b929190620001ab565b508060019080519060200190620000b4929190620001ab565b505050620000d7620000cb620000dd60201b60201c565b620000e560201b60201c565b620002c0565b600033905090565b6000600760009054906101000a900473ffffffffffffffffffffffffffffffffffffffff16905081600760006101000a81548173ffffffffffffffffffffffffffffffffffffffff021916908373ffffffffffffffffffffffffffffffffffffffff1602179055508173ffffffffffffffffffffffffffffffffffffffff168173ffffffffffffffffffffffffffffffffffffffff167f8be0079c531659141344cd1fd0a4f28419497f9722a3daafe3b4186f6b6457e060405160405180910390a35050565b828054620001b9906200025b565b90600052602060002090601f016020900481019282620001dd576000855562000229565b82601f10620001f857805160ff191683800117855562000229565b8280016001018555821562000229579182015b82811115620002285782518255916020019190600101906200020b565b5b5090506200023891906200023c565b5090565b5b80821115620002575760008160009055506001016200023d565b5090565b600060028204905060018216806200027457607f821691505b602082108114156200028b576200028a62000291565b5b50919050565b7f4e487b7100000000000000000000000000000000000000000000000000000000600052602260045260246000fd5b612fe680620002d06000396000f3fe6080604052600436106101095760003560e01c8063715018a611610095578063b88d4fde11610064578063b88d4fde14610355578063c87b56dd1461037e578063e985e9c5146103bb578063f2fde38b146103f8578063fb37e8831461042157610109565b8063715018a6146102bf5780638da5cb5b146102d657806395d89b4114610301578063a22cb4651461032c57610109565b806323b872dd116100dc57806323b872dd146101dc5780633ccfd60b1461020557806342842e0e1461021c5780636352211e1461024557806370a082311461028257610109565b806301ffc9a71461010e57806306fdde031461014b578063081812fc14610176578063095ea7b3146101b3575b600080fd5b34801561011a57600080fd5b50610135600480360381019061013091906121ac565b61043d565b60405161014291906125f3565b60405180910390f35b34801561015757600080fd5b5061016061051f565b60405161016d919061260e565b60405180910390f35b34801561018257600080fd5b5061019d6004803603810190610198919061223f565b6105b1565b6040516101aa919061258c565b60405180910390f35b3480156101bf57600080fd5b506101da60048036038101906101d59190612170565b6105f7565b005b3480156101e857600080fd5b5061020360048036038101906101fe919061206a565b61070f565b005b34801561021157600080fd5b5061021a61076f565b005b34801561022857600080fd5b50610243600480360381019061023e919061206a565b6107cd565b005b34801561025157600080fd5b5061026c6004803603810190610267919061223f565b6107ed565b604051610279919061258c565b60405180910390f35b34801561028e57600080fd5b506102a960048036038101906102a49190612005565b610874565b6040516102b69190612830565b60405180910390f35b3480156102cb57600080fd5b506102d461092c565b005b3480156102e257600080fd5b506102eb610940565b6040516102f8919061258c565b60405180910390f35b34801561030d57600080fd5b5061031661096a565b604051610323919061260e565b60405180910390f35b34801561033857600080fd5b50610353600480360381019061034e9190612134565b6109fc565b005b34801561036157600080fd5b5061037c600480360381019061037791906120b9565b610a12565b005b34801561038a57600080fd5b506103a560048036038101906103a0919061223f565b610a74565b6040516103b2919061260e565b60405180910390f35b3480156103c757600080fd5b506103e260048036038101906103dd919061202e565b610b87565b6040516103ef91906125f3565b60405180910390f35b34801561040457600080fd5b5061041f600480360381019061041a9190612005565b610c1b565b005b61043b600480360381019061043691906121fe565b610c9f565b005b60007f80ac58cd000000000000000000000000000000000000000000000000000000007bffffffffffffffffffffffffffffffffffffffffffffffffffffffff1916827bffffffffffffffffffffffffffffffffffffffffffffffffffffffff1916148061050857507f5b5e139f000000000000000000000000000000000000000000000000000000007bffffffffffffffffffffffffffffffffffffffffffffffffffffffff1916827bffffffffffffffffffffffffffffffffffffffffffffffffffffffff1916145b80610518575061051782610d67565b5b9050919050565b60606000805461052e90612a21565b80601f016020809104026020016040519081016040528092919081815260200182805461055a90612a21565b80156105a75780601f1061057c576101008083540402835291602001916105a7565b820191906000526020600020905b81548152906001019060200180831161058a57829003601f168201915b5050505050905090565b60006105bc82610dd1565b6004600083815260200190815260200160002060009054906101000a900473ffffffffffffffffffffffffffffffffffffffff169050919050565b6000610602826107ed565b90508073ffffffffffffffffffffffffffffffffffffffff168373ffffffffffffffffffffffffffffffffffffffff161415610673576040517f08c379a000000000000000000000000000000000000000000000000000000000815260040161066a906127b0565b60405180910390fd5b8073ffffffffffffffffffffffffffffffffffffffff16610692610e1c565b73ffffffffffffffffffffffffffffffffffffffff1614806106c157506106c0816106bb610e1c565b610b87565b5b610700576040517f08c379a00000000000000000000000000000000000000000000000000000000081526004016106f7906127d0565b60405180910390fd5b61070a8383610e24565b505050565b61072061071a610e1c565b82610edd565b61075f576040517f08c379a000000000000000000000000000000000000000000000000000000000815260040161075690612630565b60405180910390fd5b61076a838383610f72565b505050565b61077761126c565b6000479050610784610940565b73ffffffffffffffffffffffffffffffffffffffff166108fc829081150290604051600060405180830381858888f193505050501580156107c9573d6000803e3d6000fd5b5050565b6107e883838360405180602001604052806000815250610a12565b505050565b6000806107f9836112ea565b9050600073ffffffffffffffffffffffffffffffffffffffff168173ffffffffffffffffffffffffffffffffffffffff16141561086b576040517f08c379a000000000000000000000000000000000000000000000000000000000815260040161086290612790565b60405180910390fd5b80915050919050565b60008073ffffffffffffffffffffffffffffffffffffffff168273ffffffffffffffffffffffffffffffffffffffff1614156108e5576040517f08c379a00000000000000000000000000000000000000000000000000000000081526004016108dc90612710565b60405180910390fd5b600360008373ffffffffffffffffffffffffffffffffffffffff1673ffffffffffffffffffffffffffffffffffffffff168152602001908152602001600020549050919050565b61093461126c565b61093e6000611327565b565b6000600760009054906101000a900473ffffffffffffffffffffffffffffffffffffffff16905090565b60606001805461097990612a21565b80601f01602080910402602001604051908101604052809291908181526020018280546109a590612a21565b80156109f25780601f106109c7576101008083540402835291602001916109f2565b820191906000526020600020905b8154815290600101906020018083116109d557829003601f168201915b5050505050905090565b610a0e610a07610e1c565b83836113ed565b5050565b610a23610a1d610e1c565b83610edd565b610a62576040517f08c379a0000000000000000000000000000000000000000000000000000000008152600401610a5990612630565b60405180910390fd5b610a6e8484848461155a565b50505050565b6060610a7f82610dd1565b6000600660008481526020019081526020016000208054610a9f90612a21565b80601f0160208091040260200160405190810160405280929190818152602001828054610acb90612a21565b8015610b185780601f10610aed57610100808354040283529160200191610b18565b820191906000526020600020905b815481529060010190602001808311610afb57829003601f168201915b505050505090506000610b296115b6565b9050600081511415610b3f578192505050610b82565b600082511115610b74578082604051602001610b5c929190612568565b60405160208183030381529060405292505050610b82565b610b7d846115cd565b925050505b919050565b6000600560008473ffffffffffffffffffffffffffffffffffffffff1673ffffffffffffffffffffffffffffffffffffffff16815260200190815260200160002060008373ffffffffffffffffffffffffffffffffffffffff1673ffffffffffffffffffffffffffffffffffffffff16815260200190815260200160002060009054906101000a900460ff16905092915050565b610c2361126c565b600073ffffffffffffffffffffffffffffffffffffffff168173ffffffffffffffffffffffffffffffffffffffff161415610c93576040517f08c379a0000000000000000000000000000000000000000000000000000000008152600401610c8a90612670565b60405180910390fd5b610c9c81611327565b50565b600a60085410610ce4576040517f08c379a0000000000000000000000000000000000000000000000000000000008152600401610cdb90612810565b60405180910390fd5b67016345785d8a00003414610d2e576040517f08c379a0000000000000000000000000000000000000000000000000000000008152600401610d25906127f0565b60405180910390fd5b600160086000828254610d419190612915565b9250508190555060006008549050610d593382611635565b610d638183611853565b5050565b60007f01ffc9a7000000000000000000000000000000000000000000000000000000007bffffffffffffffffffffffffffffffffffffffffffffffffffffffff1916827bffffffffffffffffffffffffffffffffffffffffffffffffffffffff1916149050919050565b610dda816118c7565b610e19576040517f08c379a0000000000000000000000000000000000000000000000000000000008152600401610e1090612790565b60405180910390fd5b50565b600033905090565b816004600083815260200190815260200160002060006101000a81548173ffffffffffffffffffffffffffffffffffffffff021916908373ffffffffffffffffffffffffffffffffffffffff160217905550808273ffffffffffffffffffffffffffffffffffffffff16610e97836107ed565b73ffffffffffffffffffffffffffffffffffffffff167f8c5be1e5ebec7d5bd14f71427d1e84f3dd0314c0f7b2291e5b200ac8c7c3b92560405160405180910390a45050565b600080610ee9836107ed565b90508073ffffffffffffffffffffffffffffffffffffffff168473ffffffffffffffffffffffffffffffffffffffff161480610f2b5750610f2a8185610b87565b5b80610f6957508373ffffffffffffffffffffffffffffffffffffffff16610f51846105b1565b73ffffffffffffffffffffffffffffffffffffffff16145b91505092915050565b8273ffffffffffffffffffffffffffffffffffffffff16610f92826107ed565b73ffffffffffffffffffffffffffffffffffffffff1614610fe8576040517f08c379a0000000000000000000000000000000000000000000000000000000008152600401610fdf90612690565b60405180910390fd5b600073ffffffffffffffffffffffffffffffffffffffff168273ffffffffffffffffffffffffffffffffffffffff161415611058576040517f08c379a000000000000000000000000000000000000000000000000000000000815260040161104f906126d0565b60405180910390fd5b6110658383836001611908565b8273ffffffffffffffffffffffffffffffffffffffff16611085826107ed565b73ffffffffffffffffffffffffffffffffffffffff16146110db576040517f08c379a00000000000000000000000000000000000000000000000000000000081526004016110d290612690565b60405180910390fd5b6004600082815260200190815260200160002060006101000a81549073ffffffffffffffffffffffffffffffffffffffff02191690556001600360008573ffffffffffffffffffffffffffffffffffffffff1673ffffffffffffffffffffffffffffffffffffffff168152602001908152602001600020600082825403925050819055506001600360008473ffffffffffffffffffffffffffffffffffffffff1673ffffffffffffffffffffffffffffffffffffffff16815260200190815260200160002060008282540192505081905550816002600083815260200190815260200160002060006101000a81548173ffffffffffffffffffffffffffffffffffffffff021916908373ffffffffffffffffffffffffffffffffffffffff160217905550808273ffffffffffffffffffffffffffffffffffffffff168473ffffffffffffffffffffffffffffffffffffffff167fddf252ad1be2c89b69c2b068fc378daa952ba7f163c4a11628f55a4df523b3ef60405160405180910390a4611267838383600161190e565b505050565b611274610e1c565b73ffffffffffffffffffffffffffffffffffffffff16611292610940565b73ffffffffffffffffffffffffffffffffffffffff16146112e8576040517f08c379a00000000000000000000000000000000000000000000000000000000081526004016112df90612770565b60405180910390fd5b565b60006002600083815260200190815260200160002060009054906101000a900473ffffffffffffffffffffffffffffffffffffffff169050919050565b6000600760009054906101000a900473ffffffffffffffffffffffffffffffffffffffff16905081600760006101000a81548173ffffffffffffffffffffffffffffffffffffffff021916908373ffffffffffffffffffffffffffffffffffffffff1602179055508173ffffffffffffffffffffffffffffffffffffffff168173ffffffffffffffffffffffffffffffffffffffff167f8be0079c531659141344cd1fd0a4f28419497f9722a3daafe3b4186f6b6457e060405160405180910390a35050565b8173ffffffffffffffffffffffffffffffffffffffff168373ffffffffffffffffffffffffffffffffffffffff16141561145c576040517f08c379a0000000000000000000000000000000000000000000000000000000008152600401611453906126f0565b60405180910390fd5b80600560008573ffffffffffffffffffffffffffffffffffffffff1673ffffffffffffffffffffffffffffffffffffffff16815260200190815260200160002060008473ffffffffffffffffffffffffffffffffffffffff1673ffffffffffffffffffffffffffffffffffffffff16815260200190815260200160002060006101000a81548160ff0219169083151502179055508173ffffffffffffffffffffffffffffffffffffffff168373ffffffffffffffffffffffffffffffffffffffff167f17307eab39ab6107e8899845ad3d59bd9653f200f220920489ca2b5937696c318360405161154d91906125f3565b60405180910390a3505050565b611565848484610f72565b61157184848484611914565b6115b0576040517f08c379a00000000000000000000000000000000000000000000000000000000081526004016115a790612650565b60405180910390fd5b50505050565b606060405180602001604052806000815250905090565b60606115d882610dd1565b60006115e26115b6565b90506000815111611602576040518060200160405280600081525061162d565b8061160c84611aab565b60405160200161161d929190612568565b6040516020818303038152906040525b915050919050565b600073ffffffffffffffffffffffffffffffffffffffff168273ffffffffffffffffffffffffffffffffffffffff1614156116a5576040517f08c379a000000000000000000000000000000000000000000000000000000000815260040161169c90612750565b60405180910390fd5b6116ae816118c7565b156116ee576040517f08c379a00000000000000000000000000000000000000000000000000000000081526004016116e5906126b0565b60405180910390fd5b6116fc600083836001611908565b611705816118c7565b15611745576040517f08c379a000000000000000000000000000000000000000000000000000000000815260040161173c906126b0565b60405180910390fd5b6001600360008473ffffffffffffffffffffffffffffffffffffffff1673ffffffffffffffffffffffffffffffffffffffff16815260200190815260200160002060008282540192505081905550816002600083815260200190815260200160002060006101000a81548173ffffffffffffffffffffffffffffffffffffffff021916908373ffffffffffffffffffffffffffffffffffffffff160217905550808273ffffffffffffffffffffffffffffffffffffffff16600073ffffffffffffffffffffffffffffffffffffffff167fddf252ad1be2c89b69c2b068fc378daa952ba7f163c4a11628f55a4df523b3ef60405160405180910390a461184f60008383600161190e565b5050565b61185c826118c7565b61189b576040517f08c379a000000000000000000000000000000000000000000000000000000000815260040161189290612730565b60405180910390fd5b806006600084815260200190815260200160002090805190602001906118c2929190611e29565b505050565b60008073ffffffffffffffffffffffffffffffffffffffff166118e9836112ea565b73ffffffffffffffffffffffffffffffffffffffff1614159050919050565b50505050565b50505050565b60006119358473ffffffffffffffffffffffffffffffffffffffff16611bcf565b15611a9e578373ffffffffffffffffffffffffffffffffffffffff1663150b7a0261195e610e1c565b8786866040518563ffffffff1660e01b815260040161198094939291906125a7565b602060405180830381600087803b15801561199a57600080fd5b505af19250505080156119cb57506040513d601f19601f820116820180604052508101906119c891906121d5565b60015b611a4e573d80600081146119fb576040519150601f19603f3d011682016040523d82523d6000602084013e611a00565b606091505b50600081511415611a46576040517f08c379a0000000000000000000000000000000000000000000000000000000008152600401611a3d90612650565b60405180910390fd5b805181602001fd5b63150b7a0260e01b7bffffffffffffffffffffffffffffffffffffffffffffffffffffffff1916817bffffffffffffffffffffffffffffffffffffffffffffffffffffffff191614915050611aa3565b600190505b949350505050565b606060006001611aba84611bf2565b01905060008167ffffffffffffffff811115611aff577f4e487b7100000000000000000000000000000000000000000000000000000000600052604160045260246000fd5b6040519080825280601f01601f191660200182016040528015611b315781602001600182028036833780820191505090505b509050600082602001820190505b600115611bc4578080600190039150507f3031323334353637383961626364656600000000000000000000000000000000600a86061a8153600a8581611bae577f4e487b7100000000000000000000000000000000000000000000000000000000600052601260045260246000fd5b0494506000851415611bbf57611bc4565b611b3f565b819350505050919050565b6000808273ffffffffffffffffffffffffffffffffffffffff163b119050919050565b600080600090507a184f03e93ff9f4daa797ed6e38ed64bf6a1f0100000000000000008310611c76577a184f03e93ff9f4daa797ed6e38ed64bf6a1f0100000000000000008381611c6c577f4e487b7100000000000000000000000000000000000000000000000000000000600052601260045260246000fd5b0492506040810190505b6d04ee2d6d415b85acef81000000008310611cd9576d04ee2d6d415b85acef81000000008381611ccf577f4e487b7100000000000000000000000000000000000000000000000000000000600052601260045260246000fd5b0492506020810190505b662386f26fc100008310611d2e57662386f26fc100008381611d24577f4e487b7100000000000000000000000000000000000000000000000000000000600052601260045260246000fd5b0492506010810190505b6305f5e1008310611d7d576305f5e1008381611d73577f4e487b7100000000000000000000000000000000000000000000000000000000600052601260045260246000fd5b0492506008810190505b6127108310611dc8576127108381611dbe577f4e487b7100000000000000000000000000000000000000000000000000000000600052601260045260246000fd5b0492506004810190505b60648310611e115760648381611e07577f4e487b7100000000000000000000000000000000000000000000000000000000600052601260045260246000fd5b0492506002810190505b600a8310611e20576001810190505b80915050919050565b828054611e3590612a21565b90600052602060002090601f016020900481019282611e575760008555611e9e565b82601f10611e7057805160ff1916838001178555611e9e565b82800160010185558215611e9e579182015b82811115611e9d578251825591602001919060010190611e82565b5b509050611eab9190611eaf565b5090565b5b80821115611ec8576000816000905550600101611eb0565b5090565b6000611edf611eda84612870565b61284b565b905082815260208101848484011115611ef757600080fd5b611f028482856129df565b509392505050565b6000611f1d611f18846128a1565b61284b565b905082815260208101848484011115611f3557600080fd5b611f408482856129df565b509392505050565b600081359050611f5781612f54565b92915050565b600081359050611f6c81612f6b565b92915050565b600081359050611f8181612f82565b92915050565b600081519050611f9681612f82565b92915050565b600082601f830112611fad57600080fd5b8135611fbd848260208601611ecc565b91505092915050565b600082601f830112611fd757600080fd5b8135611fe7848260208601611f0a565b91505092915050565b600081359050611fff81612f99565b92915050565b60006020828403121561201757600080fd5b600061202584828501611f48565b91505092915050565b6000806040838503121561204157600080fd5b600061204f85828601611f48565b925050602061206085828601611f48565b9150509250929050565b60008060006060848603121561207f57600080fd5b600061208d86828701611f48565b935050602061209e86828701611f48565b92505060406120af86828701611ff0565b9150509250925092565b600080600080608085870312156120cf57600080fd5b60006120dd87828801611f48565b94505060206120ee87828801611f48565b93505060406120ff87828801611ff0565b925050606085013567ffffffffffffffff81111561211c57600080fd5b61212887828801611f9c565b91505092959194509250565b6000806040838503121561214757600080fd5b600061215585828601611f48565b925050602061216685828601611f5d565b9150509250929050565b6000806040838503121561218357600080fd5b600061219185828601611f48565b92505060206121a285828601611ff0565b9150509250929050565b6000602082840312156121be57600080fd5b60006121cc84828501611f72565b91505092915050565b6000602082840312156121e757600080fd5b60006121f584828501611f87565b91505092915050565b60006020828403121561221057600080fd5b600082013567ffffffffffffffff81111561222a57600080fd5b61223684828501611fc6565b91505092915050565b60006020828403121561225157600080fd5b600061225f84828501611ff0565b91505092915050565b6122718161296b565b82525050565b6122808161297d565b82525050565b6000612291826128d2565b61229b81856128e8565b93506122ab8185602086016129ee565b6122b481612b11565b840191505092915050565b60006122ca826128dd565b6122d481856128f9565b93506122e48185602086016129ee565b6122ed81612b11565b840191505092915050565b6000612303826128dd565b61230d818561290a565b935061231d8185602086016129ee565b80840191505092915050565b6000612336602d836128f9565b915061234182612b22565b604082019050919050565b60006123596032836128f9565b915061236482612b71565b604082019050919050565b600061237c6026836128f9565b915061238782612bc0565b604082019050919050565b600061239f6025836128f9565b91506123aa82612c0f565b604082019050919050565b60006123c2601c836128f9565b91506123cd82612c5e565b602082019050919050565b60006123e56024836128f9565b91506123f082612c87565b604082019050919050565b60006124086019836128f9565b915061241382612cd6565b602082019050919050565b600061242b6029836128f9565b915061243682612cff565b604082019050919050565b600061244e602e836128f9565b915061245982612d4e565b604082019050919050565b60006124716020836128f9565b915061247c82612d9d565b602082019050919050565b60006124946020836128f9565b915061249f82612dc6565b602082019050919050565b60006124b76018836128f9565b91506124c282612def565b602082019050919050565b60006124da6021836128f9565b91506124e582612e18565b604082019050919050565b60006124fd603d836128f9565b915061250882612e67565b604082019050919050565b60006125206025836128f9565b915061252b82612eb6565b604082019050919050565b60006125436023836128f9565b915061254e82612f05565b604082019050919050565b612562816129d5565b82525050565b600061257482856122f8565b915061258082846122f8565b91508190509392505050565b60006020820190506125a16000830184612268565b92915050565b60006080820190506125bc6000830187612268565b6125c96020830186612268565b6125d66040830185612559565b81810360608301526125e88184612286565b905095945050505050565b60006020820190506126086000830184612277565b92915050565b6000602082019050818103600083015261262881846122bf565b905092915050565b6000602082019050818103600083015261264981612329565b9050919050565b600060208201905081810360008301526126698161234c565b9050919050565b600060208201905081810360008301526126898161236f565b9050919050565b600060208201905081810360008301526126a981612392565b9050919050565b600060208201905081810360008301526126c9816123b5565b9050919050565b600060208201905081810360008301526126e9816123d8565b9050919050565b60006020820190508181036000830152612709816123fb565b9050919050565b600060208201905081810360008301526127298161241e565b9050919050565b6000602082019050818103600083015261274981612441565b9050919050565b6000602082019050818103600083015261276981612464565b9050919050565b6000602082019050818103600083015261278981612487565b9050919050565b600060208201905081810360008301526127a9816124aa565b9050919050565b600060208201905081810360008301526127c9816124cd565b9050919050565b600060208201905081810360008301526127e9816124f0565b9050919050565b6000602082019050818103600083015261280981612513565b9050919050565b6000602082019050818103600083015261282981612536565b9050919050565b60006020820190506128456000830184612559565b92915050565b6000612855612866565b90506128618282612a53565b919050565b6000604051905090565b600067ffffffffffffffff82111561288b5761288a612ae2565b5b61289482612b11565b9050602081019050919050565b600067ffffffffffffffff8211156128bc576128bb612ae2565b5b6128c582612b11565b9050602081019050919050565b600081519050919050565b600081519050919050565b600082825260208201905092915050565b600082825260208201905092915050565b600081905092915050565b6000612920826129d5565b915061292b836129d5565b9250827fffffffffffffffffffffffffffffffffffffffffffffffffffffffffffffffff038211156129605761295f612a84565b5b828201905092915050565b6000612976826129b5565b9050919050565b60008115159050919050565b60007fffffffff0000000000000000000000000000000000000000000000000000000082169050919050565b600073ffffffffffffffffffffffffffffffffffffffff82169050919050565b6000819050919050565b82818337600083830152505050565b60005b83811015612a0c5780820151818401526020810190506129f1565b83811115612a1b576000848401525b50505050565b60006002820490506001821680612a3957607f821691505b60208210811415612a4d57612a4c612ab3565b5b50919050565b612a5c82612b11565b810181811067ffffffffffffffff82111715612a7b57612a7a612ae2565b5b80604052505050565b7f4e487b7100000000000000000000000000000000000000000000000000000000600052601160045260246000fd5b7f4e487b7100000000000000000000000000000000000000000000000000000000600052602260045260246000fd5b7f4e487b7100000000000000000000000000000000000000000000000000000000600052604160045260246000fd5b6000601f19601f8301169050919050565b7f4552433732313a2063616c6c6572206973206e6f7420746f6b656e206f776e6560008201527f72206f7220617070726f76656400000000000000000000000000000000000000602082015250565b7f4552433732313a207472616e7366657220746f206e6f6e20455243373231526560008201527f63656976657220696d706c656d656e7465720000000000000000000000000000602082015250565b7f4f776e61626c653a206e6577206f776e657220697320746865207a65726f206160008201527f6464726573730000000000000000000000000000000000000000000000000000602082015250565b7f4552433732313a207472616e736665722066726f6d20696e636f72726563742060008201527f6f776e6572000000000000000000000000000000000000000000000000000000602082015250565b7f4552433732313a20746f6b656e20616c7265616479206d696e74656400000000600082015250565b7f4552433732313a207472616e7366657220746f20746865207a65726f2061646460008201527f7265737300000000000000000000000000000000000000000000000000000000602082015250565b7f4552433732313a20617070726f766520746f2063616c6c657200000000000000600082015250565b7f4552433732313a2061646472657373207a65726f206973206e6f74206120766160008201527f6c6964206f776e65720000000000000000000000000000000000000000000000602082015250565b7f45524337323155524953746f726167653a2055524920736574206f66206e6f6e60008201527f6578697374656e7420746f6b656e000000000000000000000000000000000000602082015250565b7f4552433732313a206d696e7420746f20746865207a65726f2061646472657373600082015250565b7f4f776e61626c653a2063616c6c6572206973206e6f7420746865206f776e6572600082015250565b7f4552433732313a20696e76616c696420746f6b656e2049440000000000000000600082015250565b7f4552433732313a20617070726f76616c20746f2063757272656e74206f776e6560008201527f7200000000000000000000000000000000000000000000000000000000000000602082015250565b7f4552433732313a20617070726f76652063616c6c6572206973206e6f7420746f60008201527f6b656e206f776e6572206f7220617070726f76656420666f7220616c6c000000602082015250565b7f4d696e7461626c654e46543a20496e636f7272656374207061796d656e74206160008201527f6d6f756e74000000000000000000000000000000000000000000000000000000602082015250565b7f4d696e7461626c654e46543a204d6178696d756d20737570706c79207265616360008201527f6865640000000000000000000000000000000000000000000000000000000000602082015250565b612f5d8161296b565b8114612f6857600080fd5b50565b612f748161297d565b8114612f7f57600080fd5b50565b612f8b81612989565b8114612f9657600080fd5b50565b612fa2816129d5565b8114612fad57600080fd5b5056fea2646970667358221220f8e957bdc748757f8d45e299d30ef5796cc15c5fb66d2910d3f39ba33ceaa9bd64736f6c63430008010033",
  "immutableReferences": {},
  "source": "// SPDX-License-Identifier: MIT\r\npragma solidity ^0.8.1;\r\n\r\nimport \"@openzeppelin/contracts/token/ERC721/ERC721.sol\";\r\nimport \"@openzeppelin/contracts/token/ERC721/extensions/ERC721URIStorage.sol\";\r\nimport \"@openzeppelin/contracts/access/Ownable.sol\";\r\n\r\ncontract MintableNFT is ERC721URIStorage, Ownable {\r\n    uint256 private constant MAX_SUPPLY = 10;\r\n    uint256 private constant MINT_PRICE = 0.1 ether;\r\n\r\n    uint256 private _tokenIdCounter = 0;\r\n\r\n    constructor() ERC721(\"MintableNFT\", \"MNFT\") {}\r\n\r\n    function mintNFT(string memory tokenURI) public payable {\r\n        require(_tokenIdCounter < MAX_SUPPLY, \"MintableNFT: Maximum supply reached\");\r\n        require(msg.value == MINT_PRICE, \"MintableNFT: Incorrect payment amount\");\r\n\r\n        _tokenIdCounter += 1;\r\n        uint256 newTokenId = _tokenIdCounter;\r\n        _mint(msg.sender, newTokenId);\r\n        _setTokenURI(newTokenId, tokenURI);\r\n    }\r\n\r\n    function withdraw() public onlyOwner {\r\n        uint256 balance = address(this).balance;\r\n        payable(owner()).transfer(balance);\r\n    }\r\n}\r\n",
  "sourcePath": "C:\\development\\NFT-App-ChatGpt\\contracts\\myNFT.sol",
  "compiler": {
    "name": "solc",
    "version": "0.8.1+commit.df193b15.Emscripten.clang"
  },
  "schemaVersion": "3.4.13",
  "updatedAt": "2023-04-20T16:43:56.544Z",
  "devdoc": {
    "kind": "dev",
    "methods": {
      "approve(address,uint256)": {
        "details": "See {IERC721-approve}."
      },
      "balanceOf(address)": {
        "details": "See {IERC721-balanceOf}."
      },
      "getApproved(uint256)": {
        "details": "See {IERC721-getApproved}."
      },
      "isApprovedForAll(address,address)": {
        "details": "See {IERC721-isApprovedForAll}."
      },
      "name()": {
        "details": "See {IERC721Metadata-name}."
      },
      "owner()": {
        "details": "Returns the address of the current owner."
      },
      "ownerOf(uint256)": {
        "details": "See {IERC721-ownerOf}."
      },
      "renounceOwnership()": {
        "details": "Leaves the contract without owner. It will not be possible to call `onlyOwner` functions anymore. Can only be called by the current owner. NOTE: Renouncing ownership will leave the contract without an owner, thereby removing any functionality that is only available to the owner."
      },
      "safeTransferFrom(address,address,uint256)": {
        "details": "See {IERC721-safeTransferFrom}."
      },
      "safeTransferFrom(address,address,uint256,bytes)": {
        "details": "See {IERC721-safeTransferFrom}."
      },
      "setApprovalForAll(address,bool)": {
        "details": "See {IERC721-setApprovalForAll}."
      },
      "supportsInterface(bytes4)": {
        "details": "See {IERC165-supportsInterface}."
      },
      "symbol()": {
        "details": "See {IERC721Metadata-symbol}."
      },
      "tokenURI(uint256)": {
        "details": "See {IERC721Metadata-tokenURI}."
      },
      "transferFrom(address,address,uint256)": {
        "details": "See {IERC721-transferFrom}."
      },
      "transferOwnership(address)": {
        "details": "Transfers ownership of the contract to a new account (`newOwner`). Can only be called by the current owner."
      }
    },
    "version": 1
  },
  "userdoc": {
    "kind": "user",
    "methods": {},
    "version": 1
  }
}