{
  "_format": "hh-sol-artifact-1",
  "contractName": "MintableNFT",
  "sourceName": "contracts/MintableNFT.sol",
  "abi": [
    {
      "inputs": [],
      "stateMutability": "nonpayable",
      "type": "constructor"
    },
    {
      "anonymous": false,
      "inputs": [
        {
          "indexed": true,
          "internalType": "address",
          "name": "owner",
          "type": "address"
        },
        {
          "indexed": true,
          "internalType": "address",
          "name": "approved",
          "type": "address"
        },
        {
          "indexed": true,
          "internalType": "uint256",
          "name": "tokenId",
          "type": "uint256"
        }
      ],
      "name": "Approval",
      "type": "event"
    },
    {
      "anonymous": false,
      "inputs": [
        {
          "indexed": true,
          "internalType": "address",
          "name": "owner",
          "type": "address"
        },
        {
          "indexed": true,
          "internalType": "address",
          "name": "operator",
          "type": "address"
        },
        {
          "indexed": false,
          "internalType": "bool",
          "name": "approved",
          "type": "bool"
        }
      ],
      "name": "ApprovalForAll",
      "type": "event"
    },
    {
      "anonymous": false,
      "inputs": [
        {
          "indexed": true,
          "internalType": "address",
          "name": "previousOwner",
          "type": "address"
        },
        {
          "indexed": true,
          "internalType": "address",
          "name": "newOwner",
          "type": "address"
        }
      ],
      "name": "OwnershipTransferred",
      "type": "event"
    },
    {
      "anonymous": false,
      "inputs": [
        {
          "indexed": true,
          "internalType": "address",
          "name": "from",
          "type": "address"
        },
        {
          "indexed": true,
          "internalType": "address",
          "name": "to",
          "type": "address"
        },
        {
          "indexed": true,
          "internalType": "uint256",
          "name": "tokenId",
          "type": "uint256"
        }
      ],
      "name": "Transfer",
      "type": "event"
    },
    {
      "inputs": [
        {
          "internalType": "address",
          "name": "to",
          "type": "address"
        },
        {
          "internalType": "uint256",
          "name": "tokenId",
          "type": "uint256"
        }
      ],
      "name": "approve",
      "outputs": [],
      "stateMutability": "nonpayable",
      "type": "function"
    },
    {
      "inputs": [
        {
          "internalType": "address",
          "name": "owner",
          "type": "address"
        }
      ],
      "name": "balanceOf",
      "outputs": [
        {
          "internalType": "uint256",
          "name": "",
          "type": "uint256"
        }
      ],
      "stateMutability": "view",
      "type": "function"
    },
    {
      "inputs": [
        {
          "internalType": "uint256",
          "name": "tokenId",
          "type": "uint256"
        }
      ],
      "name": "getApproved",
      "outputs": [
        {
          "internalType": "address",
          "name": "",
          "type": "address"
        }
      ],
      "stateMutability": "view",
      "type": "function"
    },
    {
      "inputs": [
        {
          "internalType": "address",
          "name": "owner",
          "type": "address"
        },
        {
          "internalType": "address",
          "name": "operator",
          "type": "address"
        }
      ],
      "name": "isApprovedForAll",
      "outputs": [
        {
          "internalType": "bool",
          "name": "",
          "type": "bool"
        }
      ],
      "stateMutability": "view",
      "type": "function"
    },
    {
      "inputs": [
        {
          "internalType": "string",
          "name": "tokenURI",
          "type": "string"
        }
      ],
      "name": "mintNFT",
      "outputs": [],
      "stateMutability": "payable",
      "type": "function"
    },
    {
      "inputs": [],
      "name": "name",
      "outputs": [
        {
          "internalType": "string",
          "name": "",
          "type": "string"
        }
      ],
      "stateMutability": "view",
      "type": "function"
    },
    {
      "inputs": [],
      "name": "owner",
      "outputs": [
        {
          "internalType": "address",
          "name": "",
          "type": "address"
        }
      ],
      "stateMutability": "view",
      "type": "function"
    },
    {
      "inputs": [
        {
          "internalType": "uint256",
          "name": "tokenId",
          "type": "uint256"
        }
      ],
      "name": "ownerOf",
      "outputs": [
        {
          "internalType": "address",
          "name": "",
          "type": "address"
        }
      ],
      "stateMutability": "view",
      "type": "function"
    },
    {
      "inputs": [],
      "name": "renounceOwnership",
      "outputs": [],
      "stateMutability": "nonpayable",
      "type": "function"
    },
    {
      "inputs": [
        {
          "internalType": "address",
          "name": "from",
          "type": "address"
        },
        {
          "internalType": "address",
          "name": "to",
          "type": "address"
        },
        {
          "internalType": "uint256",
          "name": "tokenId",
          "type": "uint256"
        }
      ],
      "name": "safeTransferFrom",
      "outputs": [],
      "stateMutability": "nonpayable",
      "type": "function"
    },
    {
      "inputs": [
        {
          "internalType": "address",
          "name": "from",
          "type": "address"
        },
        {
          "internalType": "address",
          "name": "to",
          "type": "address"
        },
        {
          "internalType": "uint256",
          "name": "tokenId",
          "type": "uint256"
        },
        {
          "internalType": "bytes",
          "name": "data",
          "type": "bytes"
        }
      ],
      "name": "safeTransferFrom",
      "outputs": [],
      "stateMutability": "nonpayable",
      "type": "function"
    },
    {
      "inputs": [
        {
          "internalType": "address",
          "name": "operator",
          "type": "address"
        },
        {
          "internalType": "bool",
          "name": "approved",
          "type": "bool"
        }
      ],
      "name": "setApprovalForAll",
      "outputs": [],
      "stateMutability": "nonpayable",
      "type": "function"
    },
    {
      "inputs": [
        {
          "internalType": "bytes4",
          "name": "interfaceId",
          "type": "bytes4"
        }
      ],
      "name": "supportsInterface",
      "outputs": [
        {
          "internalType": "bool",
          "name": "",
          "type": "bool"
        }
      ],
      "stateMutability": "view",
      "type": "function"
    },
    {
      "inputs": [],
      "name": "symbol",
      "outputs": [
        {
          "internalType": "string",
          "name": "",
          "type": "string"
        }
      ],
      "stateMutability": "view",
      "type": "function"
    },
    {
      "inputs": [
        {
          "internalType": "uint256",
          "name": "index",
          "type": "uint256"
        }
      ],
      "name": "tokenByIndex",
      "outputs": [
        {
          "internalType": "uint256",
          "name": "",
          "type": "uint256"
        }
      ],
      "stateMutability": "view",
      "type": "function"
    },
    {
      "inputs": [
        {
          "internalType": "address",
          "name": "owner",
          "type": "address"
        },
        {
          "internalType": "uint256",
          "name": "index",
          "type": "uint256"
        }
      ],
      "name": "tokenOfOwnerByIndex",
      "outputs": [
        {
          "internalType": "uint256",
          "name": "",
          "type": "uint256"
        }
      ],
      "stateMutability": "view",
      "type": "function"
    },
    {
      "inputs": [
        {
          "internalType": "uint256",
          "name": "tokenId",
          "type": "uint256"
        }
      ],
      "name": "tokenURI",
      "outputs": [
        {
          "internalType": "string",
          "name": "",
          "type": "string"
        }
      ],
      "stateMutability": "view",
      "type": "function"
    },
    {
      "inputs": [],
      "name": "totalSupply",
      "outputs": [
        {
          "internalType": "uint256",
          "name": "",
          "type": "uint256"
        }
      ],
      "stateMutability": "view",
      "type": "function"
    },
    {
      "inputs": [
        {
          "internalType": "address",
          "name": "from",
          "type": "address"
        },
        {
          "internalType": "address",
          "name": "to",
          "type": "address"
        },
        {
          "internalType": "uint256",
          "name": "tokenId",
          "type": "uint256"
        }
      ],
      "name": "transferFrom",
      "outputs": [],
      "stateMutability": "nonpayable",
      "type": "function"
    },
    {
      "inputs": [
        {
          "internalType": "address",
          "name": "newOwner",
          "type": "address"
        }
      ],
      "name": "transferOwnership",
      "outputs": [],
      "stateMutability": "nonpayable",
      "type": "function"
    },
    {
      "inputs": [],
      "name": "withdraw",
      "outputs": [],
      "stateMutability": "nonpayable",
      "type": "function"
    }
  ],
  "bytecode": "0x60806040526000600c553480156200001657600080fd5b506040518060400160405280600b81526020017f4d696e7461626c654e46540000000000000000000000000000000000000000008152506040518060400160405280600481526020017f4d4e46540000000000000000000000000000000000000000000000000000000081525081600090805190602001906200009b929190620001ab565b508060019080519060200190620000b4929190620001ab565b505050620000d7620000cb620000dd60201b60201c565b620000e560201b60201c565b620002c0565b600033905090565b6000600b60009054906101000a900473ffffffffffffffffffffffffffffffffffffffff16905081600b60006101000a81548173ffffffffffffffffffffffffffffffffffffffff021916908373ffffffffffffffffffffffffffffffffffffffff1602179055508173ffffffffffffffffffffffffffffffffffffffff168173ffffffffffffffffffffffffffffffffffffffff167f8be0079c531659141344cd1fd0a4f28419497f9722a3daafe3b4186f6b6457e060405160405180910390a35050565b828054620001b9906200025b565b90600052602060002090601f016020900481019282620001dd576000855562000229565b82601f10620001f857805160ff191683800117855562000229565b8280016001018555821562000229579182015b82811115620002285782518255916020019190600101906200020b565b5b5090506200023891906200023c565b5090565b5b80821115620002575760008160009055506001016200023d565b5090565b600060028204905060018216806200027457607f821691505b602082108114156200028b576200028a62000291565b5b50919050565b7f4e487b7100000000000000000000000000000000000000000000000000000000600052602260045260246000fd5b61398e80620002d06000396000f3fe60806040526004361061012a5760003560e01c80636352211e116100ab578063a22cb4651161006f578063a22cb465146103f2578063b88d4fde1461041b578063c87b56dd14610444578063e985e9c514610481578063f2fde38b146104be578063fb37e883146104e75761012a565b80636352211e1461030b57806370a0823114610348578063715018a6146103855780638da5cb5b1461039c57806395d89b41146103c75761012a565b806323b872dd116100f257806323b872dd146102285780632f745c59146102515780633ccfd60b1461028e57806342842e0e146102a55780634f6ccce7146102ce5761012a565b806301ffc9a71461012f57806306fdde031461016c578063081812fc14610197578063095ea7b3146101d457806318160ddd146101fd575b600080fd5b34801561013b57600080fd5b506101566004803603810190610151919061296a565b610503565b6040516101639190612e1a565b60405180910390f35b34801561017857600080fd5b50610181610515565b60405161018e9190612e35565b60405180910390f35b3480156101a357600080fd5b506101be60048036038101906101b991906129fd565b6105a7565b6040516101cb9190612db3565b60405180910390f35b3480156101e057600080fd5b506101fb60048036038101906101f6919061292e565b6105ed565b005b34801561020957600080fd5b50610212610705565b60405161021f91906130b7565b60405180910390f35b34801561023457600080fd5b5061024f600480360381019061024a9190612828565b610714565b005b34801561025d57600080fd5b506102786004803603810190610273919061292e565b610774565b60405161028591906130b7565b60405180910390f35b34801561029a57600080fd5b506102a3610788565b005b3480156102b157600080fd5b506102cc60048036038101906102c79190612828565b6107e6565b005b3480156102da57600080fd5b506102f560048036038101906102f091906129fd565b610806565b60405161030291906130b7565b60405180910390f35b34801561031757600080fd5b50610332600480360381019061032d91906129fd565b61089d565b60405161033f9190612db3565b60405180910390f35b34801561035457600080fd5b5061036f600480360381019061036a91906127c3565b610924565b60405161037c91906130b7565b60405180910390f35b34801561039157600080fd5b5061039a6109dc565b005b3480156103a857600080fd5b506103b16109f0565b6040516103be9190612db3565b60405180910390f35b3480156103d357600080fd5b506103dc610a1a565b6040516103e99190612e35565b60405180910390f35b3480156103fe57600080fd5b50610419600480360381019061041491906128f2565b610aac565b005b34801561042757600080fd5b50610442600480360381019061043d9190612877565b610ac2565b005b34801561045057600080fd5b5061046b600480360381019061046691906129fd565b610b24565b6040516104789190612e35565b60405180910390f35b34801561048d57600080fd5b506104a860048036038101906104a391906127ec565b610b36565b6040516104b59190612e1a565b60405180910390f35b3480156104ca57600080fd5b506104e560048036038101906104e091906127c3565b610bca565b005b61050160048036038101906104fc91906129bc565b610c4e565b005b600061050e82610d16565b9050919050565b606060008054610524906132dc565b80601f0160208091040260200160405190810160405280929190818152602001828054610550906132dc565b801561059d5780601f106105725761010080835404028352916020019161059d565b820191906000526020600020905b81548152906001019060200180831161058057829003601f168201915b5050505050905090565b60006105b282610d90565b6004600083815260200190815260200160002060009054906101000a900473ffffffffffffffffffffffffffffffffffffffff169050919050565b60006105f88261089d565b90508073ffffffffffffffffffffffffffffffffffffffff168373ffffffffffffffffffffffffffffffffffffffff161415610669576040517f08c379a000000000000000000000000000000000000000000000000000000000815260040161066090612ff7565b60405180910390fd5b8073ffffffffffffffffffffffffffffffffffffffff16610688610ddb565b73ffffffffffffffffffffffffffffffffffffffff1614806106b757506106b6816106b1610ddb565b610b36565b5b6106f6576040517f08c379a00000000000000000000000000000000000000000000000000000000081526004016106ed90613017565b60405180910390fd5b6107008383610de3565b505050565b600061070f610e9c565b905090565b61072561071f610ddb565b82610ea9565b610764576040517f08c379a000000000000000000000000000000000000000000000000000000000815260040161075b90612e57565b60405180910390fd5b61076f838383610f3e565b505050565b60006107808383611238565b905092915050565b6107906112dd565b600047905061079d6109f0565b73ffffffffffffffffffffffffffffffffffffffff166108fc829081150290604051600060405180830381858888f193505050501580156107e2573d6000803e3d6000fd5b5050565b61080183838360405180602001604052806000815250610ac2565b505050565b6000610810610e9c565b8210610851576040517f08c379a000000000000000000000000000000000000000000000000000000000815260040161084890613057565b60405180910390fd5b6009828154811061088b577f4e487b7100000000000000000000000000000000000000000000000000000000600052603260045260246000fd5b90600052602060002001549050919050565b6000806108a98361135b565b9050600073ffffffffffffffffffffffffffffffffffffffff168173ffffffffffffffffffffffffffffffffffffffff16141561091b576040517f08c379a000000000000000000000000000000000000000000000000000000000815260040161091290612fd7565b60405180910390fd5b80915050919050565b60008073ffffffffffffffffffffffffffffffffffffffff168273ffffffffffffffffffffffffffffffffffffffff161415610995576040517f08c379a000000000000000000000000000000000000000000000000000000000815260040161098c90612f57565b60405180910390fd5b600360008373ffffffffffffffffffffffffffffffffffffffff1673ffffffffffffffffffffffffffffffffffffffff168152602001908152602001600020549050919050565b6109e46112dd565b6109ee6000611398565b565b6000600b60009054906101000a900473ffffffffffffffffffffffffffffffffffffffff16905090565b606060018054610a29906132dc565b80601f0160208091040260200160405190810160405280929190818152602001828054610a55906132dc565b8015610aa25780601f10610a7757610100808354040283529160200191610aa2565b820191906000526020600020905b815481529060010190602001808311610a8557829003601f168201915b5050505050905090565b610abe610ab7610ddb565b838361145e565b5050565b610ad3610acd610ddb565b83610ea9565b610b12576040517f08c379a0000000000000000000000000000000000000000000000000000000008152600401610b0990612e57565b60405180910390fd5b610b1e848484846115cb565b50505050565b6060610b2f82611627565b9050919050565b6000600560008473ffffffffffffffffffffffffffffffffffffffff1673ffffffffffffffffffffffffffffffffffffffff16815260200190815260200160002060008373ffffffffffffffffffffffffffffffffffffffff1673ffffffffffffffffffffffffffffffffffffffff16815260200190815260200160002060009054906101000a900460ff16905092915050565b610bd26112dd565b600073ffffffffffffffffffffffffffffffffffffffff168173ffffffffffffffffffffffffffffffffffffffff161415610c42576040517f08c379a0000000000000000000000000000000000000000000000000000000008152600401610c3990612eb7565b60405180910390fd5b610c4b81611398565b50565b600a600c5410610c93576040517f08c379a0000000000000000000000000000000000000000000000000000000008152600401610c8a90613097565b60405180910390fd5b67016345785d8a00003414610cdd576040517f08c379a0000000000000000000000000000000000000000000000000000000008152600401610cd490613037565b60405180910390fd5b6001600c6000828254610cf0919061319c565b925050819055506000600c549050610d08338261173a565b610d128183611958565b5050565b60007f780e9d63000000000000000000000000000000000000000000000000000000007bffffffffffffffffffffffffffffffffffffffffffffffffffffffff1916827bffffffffffffffffffffffffffffffffffffffffffffffffffffffff19161480610d895750610d88826119cc565b5b9050919050565b610d9981611aae565b610dd8576040517f08c379a0000000000000000000000000000000000000000000000000000000008152600401610dcf90612fd7565b60405180910390fd5b50565b600033905090565b816004600083815260200190815260200160002060006101000a81548173ffffffffffffffffffffffffffffffffffffffff021916908373ffffffffffffffffffffffffffffffffffffffff160217905550808273ffffffffffffffffffffffffffffffffffffffff16610e568361089d565b73ffffffffffffffffffffffffffffffffffffffff167f8c5be1e5ebec7d5bd14f71427d1e84f3dd0314c0f7b2291e5b200ac8c7c3b92560405160405180910390a45050565b6000600980549050905090565b600080610eb58361089d565b90508073ffffffffffffffffffffffffffffffffffffffff168473ffffffffffffffffffffffffffffffffffffffff161480610ef75750610ef68185610b36565b5b80610f3557508373ffffffffffffffffffffffffffffffffffffffff16610f1d846105a7565b73ffffffffffffffffffffffffffffffffffffffff16145b91505092915050565b8273ffffffffffffffffffffffffffffffffffffffff16610f5e8261089d565b73ffffffffffffffffffffffffffffffffffffffff1614610fb4576040517f08c379a0000000000000000000000000000000000000000000000000000000008152600401610fab90612ed7565b60405180910390fd5b600073ffffffffffffffffffffffffffffffffffffffff168273ffffffffffffffffffffffffffffffffffffffff161415611024576040517f08c379a000000000000000000000000000000000000000000000000000000000815260040161101b90612f17565b60405180910390fd5b6110318383836001611aef565b8273ffffffffffffffffffffffffffffffffffffffff166110518261089d565b73ffffffffffffffffffffffffffffffffffffffff16146110a7576040517f08c379a000000000000000000000000000000000000000000000000000000000815260040161109e90612ed7565b60405180910390fd5b6004600082815260200190815260200160002060006101000a81549073ffffffffffffffffffffffffffffffffffffffff02191690556001600360008573ffffffffffffffffffffffffffffffffffffffff1673ffffffffffffffffffffffffffffffffffffffff168152602001908152602001600020600082825403925050819055506001600360008473ffffffffffffffffffffffffffffffffffffffff1673ffffffffffffffffffffffffffffffffffffffff16815260200190815260200160002060008282540192505081905550816002600083815260200190815260200160002060006101000a81548173ffffffffffffffffffffffffffffffffffffffff021916908373ffffffffffffffffffffffffffffffffffffffff160217905550808273ffffffffffffffffffffffffffffffffffffffff168473ffffffffffffffffffffffffffffffffffffffff167fddf252ad1be2c89b69c2b068fc378daa952ba7f163c4a11628f55a4df523b3ef60405160405180910390a46112338383836001611b05565b505050565b600061124383610924565b8210611284576040517f08c379a000000000000000000000000000000000000000000000000000000000815260040161127b90612e77565b60405180910390fd5b600760008473ffffffffffffffffffffffffffffffffffffffff1673ffffffffffffffffffffffffffffffffffffffff168152602001908152602001600020600083815260200190815260200160002054905092915050565b6112e5610ddb565b73ffffffffffffffffffffffffffffffffffffffff166113036109f0565b73ffffffffffffffffffffffffffffffffffffffff1614611359576040517f08c379a000000000000000000000000000000000000000000000000000000000815260040161135090612fb7565b60405180910390fd5b565b60006002600083815260200190815260200160002060009054906101000a900473ffffffffffffffffffffffffffffffffffffffff169050919050565b6000600b60009054906101000a900473ffffffffffffffffffffffffffffffffffffffff16905081600b60006101000a81548173ffffffffffffffffffffffffffffffffffffffff021916908373ffffffffffffffffffffffffffffffffffffffff1602179055508173ffffffffffffffffffffffffffffffffffffffff168173ffffffffffffffffffffffffffffffffffffffff167f8be0079c531659141344cd1fd0a4f28419497f9722a3daafe3b4186f6b6457e060405160405180910390a35050565b8173ffffffffffffffffffffffffffffffffffffffff168373ffffffffffffffffffffffffffffffffffffffff1614156114cd576040517f08c379a00000000000000000000000000000000000000000000000000000000081526004016114c490612f37565b60405180910390fd5b80600560008573ffffffffffffffffffffffffffffffffffffffff1673ffffffffffffffffffffffffffffffffffffffff16815260200190815260200160002060008473ffffffffffffffffffffffffffffffffffffffff1673ffffffffffffffffffffffffffffffffffffffff16815260200190815260200160002060006101000a81548160ff0219169083151502179055508173ffffffffffffffffffffffffffffffffffffffff168373ffffffffffffffffffffffffffffffffffffffff167f17307eab39ab6107e8899845ad3d59bd9653f200f220920489ca2b5937696c31836040516115be9190612e1a565b60405180910390a3505050565b6115d6848484610f3e565b6115e284848484611b0b565b611621576040517f08c379a000000000000000000000000000000000000000000000000000000000815260040161161890612e97565b60405180910390fd5b50505050565b606061163282610d90565b6000600660008481526020019081526020016000208054611652906132dc565b80601f016020809104026020016040519081016040528092919081815260200182805461167e906132dc565b80156116cb5780601f106116a0576101008083540402835291602001916116cb565b820191906000526020600020905b8154815290600101906020018083116116ae57829003601f168201915b5050505050905060006116dc611ca2565b90506000815114156116f2578192505050611735565b60008251111561172757808260405160200161170f929190612d8f565b60405160208183030381529060405292505050611735565b61173084611cb9565b925050505b919050565b600073ffffffffffffffffffffffffffffffffffffffff168273ffffffffffffffffffffffffffffffffffffffff1614156117aa576040517f08c379a00000000000000000000000000000000000000000000000000000000081526004016117a190612f97565b60405180910390fd5b6117b381611aae565b156117f3576040517f08c379a00000000000000000000000000000000000000000000000000000000081526004016117ea90612ef7565b60405180910390fd5b611801600083836001611aef565b61180a81611aae565b1561184a576040517f08c379a000000000000000000000000000000000000000000000000000000000815260040161184190612ef7565b60405180910390fd5b6001600360008473ffffffffffffffffffffffffffffffffffffffff1673ffffffffffffffffffffffffffffffffffffffff16815260200190815260200160002060008282540192505081905550816002600083815260200190815260200160002060006101000a81548173ffffffffffffffffffffffffffffffffffffffff021916908373ffffffffffffffffffffffffffffffffffffffff160217905550808273ffffffffffffffffffffffffffffffffffffffff16600073ffffffffffffffffffffffffffffffffffffffff167fddf252ad1be2c89b69c2b068fc378daa952ba7f163c4a11628f55a4df523b3ef60405160405180910390a4611954600083836001611b05565b5050565b61196182611aae565b6119a0576040517f08c379a000000000000000000000000000000000000000000000000000000000815260040161199790612f77565b60405180910390fd5b806006600084815260200190815260200160002090805190602001906119c79291906125e7565b505050565b60007f80ac58cd000000000000000000000000000000000000000000000000000000007bffffffffffffffffffffffffffffffffffffffffffffffffffffffff1916827bffffffffffffffffffffffffffffffffffffffffffffffffffffffff19161480611a9757507f5b5e139f000000000000000000000000000000000000000000000000000000007bffffffffffffffffffffffffffffffffffffffffffffffffffffffff1916827bffffffffffffffffffffffffffffffffffffffffffffffffffffffff1916145b80611aa75750611aa682611d21565b5b9050919050565b60008073ffffffffffffffffffffffffffffffffffffffff16611ad08361135b565b73ffffffffffffffffffffffffffffffffffffffff1614159050919050565b611aff8484846001945084611d8b565b50505050565b50505050565b6000611b2c8473ffffffffffffffffffffffffffffffffffffffff16611eeb565b15611c95578373ffffffffffffffffffffffffffffffffffffffff1663150b7a02611b55610ddb565b8786866040518563ffffffff1660e01b8152600401611b779493929190612dce565b602060405180830381600087803b158015611b9157600080fd5b505af1925050508015611bc257506040513d601f19601f82011682018060405250810190611bbf9190612993565b60015b611c45573d8060008114611bf2576040519150601f19603f3d011682016040523d82523d6000602084013e611bf7565b606091505b50600081511415611c3d576040517f08c379a0000000000000000000000000000000000000000000000000000000008152600401611c3490612e97565b60405180910390fd5b805181602001fd5b63150b7a0260e01b7bffffffffffffffffffffffffffffffffffffffffffffffffffffffff1916817bffffffffffffffffffffffffffffffffffffffffffffffffffffffff191614915050611c9a565b600190505b949350505050565b606060405180602001604052806000815250905090565b6060611cc482610d90565b6000611cce611ca2565b90506000815111611cee5760405180602001604052806000815250611d19565b80611cf884611f0e565b604051602001611d09929190612d8f565b6040516020818303038152906040525b915050919050565b60007f01ffc9a7000000000000000000000000000000000000000000000000000000007bffffffffffffffffffffffffffffffffffffffffffffffffffffffff1916827bffffffffffffffffffffffffffffffffffffffffffffffffffffffff1916149050919050565b611d9784848484612032565b6001811115611ddb576040517f08c379a0000000000000000000000000000000000000000000000000000000008152600401611dd290613077565b60405180910390fd5b6000829050600073ffffffffffffffffffffffffffffffffffffffff168573ffffffffffffffffffffffffffffffffffffffff161415611e2357611e1e81612038565b611e62565b8373ffffffffffffffffffffffffffffffffffffffff168573ffffffffffffffffffffffffffffffffffffffff1614611e6157611e608582612081565b5b5b600073ffffffffffffffffffffffffffffffffffffffff168473ffffffffffffffffffffffffffffffffffffffff161415611ea557611ea0816121ee565b611ee4565b8473ffffffffffffffffffffffffffffffffffffffff168473ffffffffffffffffffffffffffffffffffffffff1614611ee357611ee28482612331565b5b5b5050505050565b6000808273ffffffffffffffffffffffffffffffffffffffff163b119050919050565b606060006001611f1d846123b0565b01905060008167ffffffffffffffff811115611f62577f4e487b7100000000000000000000000000000000000000000000000000000000600052604160045260246000fd5b6040519080825280601f01601f191660200182016040528015611f945781602001600182028036833780820191505090505b509050600082602001820190505b600115612027578080600190039150507f3031323334353637383961626364656600000000000000000000000000000000600a86061a8153600a8581612011577f4e487b7100000000000000000000000000000000000000000000000000000000600052601260045260246000fd5b049450600085141561202257612027565b611fa2565b819350505050919050565b50505050565b600980549050600a600083815260200190815260200160002081905550600981908060018154018082558091505060019003906000526020600020016000909190919091505550565b6000600161208e84610924565b61209891906131f2565b905060006008600084815260200190815260200160002054905081811461217d576000600760008673ffffffffffffffffffffffffffffffffffffffff1673ffffffffffffffffffffffffffffffffffffffff168152602001908152602001600020600084815260200190815260200160002054905080600760008773ffffffffffffffffffffffffffffffffffffffff1673ffffffffffffffffffffffffffffffffffffffff168152602001908152602001600020600084815260200190815260200160002081905550816008600083815260200190815260200160002081905550505b6008600084815260200190815260200160002060009055600760008573ffffffffffffffffffffffffffffffffffffffff1673ffffffffffffffffffffffffffffffffffffffff16815260200190815260200160002060008381526020019081526020016000206000905550505050565b6000600160098054905061220291906131f2565b90506000600a6000848152602001908152602001600020549050600060098381548110612258577f4e487b7100000000000000000000000000000000000000000000000000000000600052603260045260246000fd5b9060005260206000200154905080600983815481106122a0577f4e487b7100000000000000000000000000000000000000000000000000000000600052603260045260246000fd5b906000526020600020018190555081600a600083815260200190815260200160002081905550600a6000858152602001908152602001600020600090556009805480612315577f4e487b7100000000000000000000000000000000000000000000000000000000600052603160045260246000fd5b6001900381819060005260206000200160009055905550505050565b600061233c83610924565b905081600760008573ffffffffffffffffffffffffffffffffffffffff1673ffffffffffffffffffffffffffffffffffffffff168152602001908152602001600020600083815260200190815260200160002081905550806008600084815260200190815260200160002081905550505050565b600080600090507a184f03e93ff9f4daa797ed6e38ed64bf6a1f0100000000000000008310612434577a184f03e93ff9f4daa797ed6e38ed64bf6a1f010000000000000000838161242a577f4e487b7100000000000000000000000000000000000000000000000000000000600052601260045260246000fd5b0492506040810190505b6d04ee2d6d415b85acef81000000008310612497576d04ee2d6d415b85acef8100000000838161248d577f4e487b7100000000000000000000000000000000000000000000000000000000600052601260045260246000fd5b0492506020810190505b662386f26fc1000083106124ec57662386f26fc1000083816124e2577f4e487b7100000000000000000000000000000000000000000000000000000000600052601260045260246000fd5b0492506010810190505b6305f5e100831061253b576305f5e1008381612531577f4e487b7100000000000000000000000000000000000000000000000000000000600052601260045260246000fd5b0492506008810190505b612710831061258657612710838161257c577f4e487b7100000000000000000000000000000000000000000000000000000000600052601260045260246000fd5b0492506004810190505b606483106125cf57606483816125c5577f4e487b7100000000000000000000000000000000000000000000000000000000600052601260045260246000fd5b0492506002810190505b600a83106125de576001810190505b80915050919050565b8280546125f3906132dc565b90600052602060002090601f016020900481019282612615576000855561265c565b82601f1061262e57805160ff191683800117855561265c565b8280016001018555821561265c579182015b8281111561265b578251825591602001919060010190612640565b5b509050612669919061266d565b5090565b5b8082111561268657600081600090555060010161266e565b5090565b600061269d612698846130f7565b6130d2565b9050828152602081018484840111156126b557600080fd5b6126c084828561329a565b509392505050565b60006126db6126d684613128565b6130d2565b9050828152602081018484840111156126f357600080fd5b6126fe84828561329a565b509392505050565b600081359050612715816138fc565b92915050565b60008135905061272a81613913565b92915050565b60008135905061273f8161392a565b92915050565b6000815190506127548161392a565b92915050565b600082601f83011261276b57600080fd5b813561277b84826020860161268a565b91505092915050565b600082601f83011261279557600080fd5b81356127a58482602086016126c8565b91505092915050565b6000813590506127bd81613941565b92915050565b6000602082840312156127d557600080fd5b60006127e384828501612706565b91505092915050565b600080604083850312156127ff57600080fd5b600061280d85828601612706565b925050602061281e85828601612706565b9150509250929050565b60008060006060848603121561283d57600080fd5b600061284b86828701612706565b935050602061285c86828701612706565b925050604061286d868287016127ae565b9150509250925092565b6000806000806080858703121561288d57600080fd5b600061289b87828801612706565b94505060206128ac87828801612706565b93505060406128bd878288016127ae565b925050606085013567ffffffffffffffff8111156128da57600080fd5b6128e68782880161275a565b91505092959194509250565b6000806040838503121561290557600080fd5b600061291385828601612706565b92505060206129248582860161271b565b9150509250929050565b6000806040838503121561294157600080fd5b600061294f85828601612706565b9250506020612960858286016127ae565b9150509250929050565b60006020828403121561297c57600080fd5b600061298a84828501612730565b91505092915050565b6000602082840312156129a557600080fd5b60006129b384828501612745565b91505092915050565b6000602082840312156129ce57600080fd5b600082013567ffffffffffffffff8111156129e857600080fd5b6129f484828501612784565b91505092915050565b600060208284031215612a0f57600080fd5b6000612a1d848285016127ae565b91505092915050565b612a2f81613226565b82525050565b612a3e81613238565b82525050565b6000612a4f82613159565b612a59818561316f565b9350612a698185602086016132a9565b612a72816133cc565b840191505092915050565b6000612a8882613164565b612a928185613180565b9350612aa28185602086016132a9565b612aab816133cc565b840191505092915050565b6000612ac182613164565b612acb8185613191565b9350612adb8185602086016132a9565b80840191505092915050565b6000612af4602d83613180565b9150612aff826133dd565b604082019050919050565b6000612b17602b83613180565b9150612b228261342c565b604082019050919050565b6000612b3a603283613180565b9150612b458261347b565b604082019050919050565b6000612b5d602683613180565b9150612b68826134ca565b604082019050919050565b6000612b80602583613180565b9150612b8b82613519565b604082019050919050565b6000612ba3601c83613180565b9150612bae82613568565b602082019050919050565b6000612bc6602483613180565b9150612bd182613591565b604082019050919050565b6000612be9601983613180565b9150612bf4826135e0565b602082019050919050565b6000612c0c602983613180565b9150612c1782613609565b604082019050919050565b6000612c2f602e83613180565b9150612c3a82613658565b604082019050919050565b6000612c52602083613180565b9150612c5d826136a7565b602082019050919050565b6000612c75602083613180565b9150612c80826136d0565b602082019050919050565b6000612c98601883613180565b9150612ca3826136f9565b602082019050919050565b6000612cbb602183613180565b9150612cc682613722565b604082019050919050565b6000612cde603d83613180565b9150612ce982613771565b604082019050919050565b6000612d01602583613180565b9150612d0c826137c0565b604082019050919050565b6000612d24602c83613180565b9150612d2f8261380f565b604082019050919050565b6000612d47603583613180565b9150612d528261385e565b604082019050919050565b6000612d6a602383613180565b9150612d75826138ad565b604082019050919050565b612d8981613290565b82525050565b6000612d9b8285612ab6565b9150612da78284612ab6565b91508190509392505050565b6000602082019050612dc86000830184612a26565b92915050565b6000608082019050612de36000830187612a26565b612df06020830186612a26565b612dfd6040830185612d80565b8181036060830152612e0f8184612a44565b905095945050505050565b6000602082019050612e2f6000830184612a35565b92915050565b60006020820190508181036000830152612e4f8184612a7d565b905092915050565b60006020820190508181036000830152612e7081612ae7565b9050919050565b60006020820190508181036000830152612e9081612b0a565b9050919050565b60006020820190508181036000830152612eb081612b2d565b9050919050565b60006020820190508181036000830152612ed081612b50565b9050919050565b60006020820190508181036000830152612ef081612b73565b9050919050565b60006020820190508181036000830152612f1081612b96565b9050919050565b60006020820190508181036000830152612f3081612bb9565b9050919050565b60006020820190508181036000830152612f5081612bdc565b9050919050565b60006020820190508181036000830152612f7081612bff565b9050919050565b60006020820190508181036000830152612f9081612c22565b9050919050565b60006020820190508181036000830152612fb081612c45565b9050919050565b60006020820190508181036000830152612fd081612c68565b9050919050565b60006020820190508181036000830152612ff081612c8b565b9050919050565b6000602082019050818103600083015261301081612cae565b9050919050565b6000602082019050818103600083015261303081612cd1565b9050919050565b6000602082019050818103600083015261305081612cf4565b9050919050565b6000602082019050818103600083015261307081612d17565b9050919050565b6000602082019050818103600083015261309081612d3a565b9050919050565b600060208201905081810360008301526130b081612d5d565b9050919050565b60006020820190506130cc6000830184612d80565b92915050565b60006130dc6130ed565b90506130e8828261330e565b919050565b6000604051905090565b600067ffffffffffffffff8211156131125761311161339d565b5b61311b826133cc565b9050602081019050919050565b600067ffffffffffffffff8211156131435761314261339d565b5b61314c826133cc565b9050602081019050919050565b600081519050919050565b600081519050919050565b600082825260208201905092915050565b600082825260208201905092915050565b600081905092915050565b60006131a782613290565b91506131b283613290565b9250827fffffffffffffffffffffffffffffffffffffffffffffffffffffffffffffffff038211156131e7576131e661333f565b5b828201905092915050565b60006131fd82613290565b915061320883613290565b92508282101561321b5761321a61333f565b5b828203905092915050565b600061323182613270565b9050919050565b60008115159050919050565b60007fffffffff0000000000000000000000000000000000000000000000000000000082169050919050565b600073ffffffffffffffffffffffffffffffffffffffff82169050919050565b6000819050919050565b82818337600083830152505050565b60005b838110156132c75780820151818401526020810190506132ac565b838111156132d6576000848401525b50505050565b600060028204905060018216806132f457607f821691505b602082108114156133085761330761336e565b5b50919050565b613317826133cc565b810181811067ffffffffffffffff821117156133365761333561339d565b5b80604052505050565b7f4e487b7100000000000000000000000000000000000000000000000000000000600052601160045260246000fd5b7f4e487b7100000000000000000000000000000000000000000000000000000000600052602260045260246000fd5b7f4e487b7100000000000000000000000000000000000000000000000000000000600052604160045260246000fd5b6000601f19601f8301169050919050565b7f4552433732313a2063616c6c6572206973206e6f7420746f6b656e206f776e6560008201527f72206f7220617070726f76656400000000000000000000000000000000000000602082015250565b7f455243373231456e756d657261626c653a206f776e657220696e646578206f7560008201527f74206f6620626f756e6473000000000000000000000000000000000000000000602082015250565b7f4552433732313a207472616e7366657220746f206e6f6e20455243373231526560008201527f63656976657220696d706c656d656e7465720000000000000000000000000000602082015250565b7f4f776e61626c653a206e6577206f776e657220697320746865207a65726f206160008201527f6464726573730000000000000000000000000000000000000000000000000000602082015250565b7f4552433732313a207472616e736665722066726f6d20696e636f72726563742060008201527f6f776e6572000000000000000000000000000000000000000000000000000000602082015250565b7f4552433732313a20746f6b656e20616c7265616479206d696e74656400000000600082015250565b7f4552433732313a207472616e7366657220746f20746865207a65726f2061646460008201527f7265737300000000000000000000000000000000000000000000000000000000602082015250565b7f4552433732313a20617070726f766520746f2063616c6c657200000000000000600082015250565b7f4552433732313a2061646472657373207a65726f206973206e6f74206120766160008201527f6c6964206f776e65720000000000000000000000000000000000000000000000602082015250565b7f45524337323155524953746f726167653a2055524920736574206f66206e6f6e60008201527f6578697374656e7420746f6b656e000000000000000000000000000000000000602082015250565b7f4552433732313a206d696e7420746f20746865207a65726f2061646472657373600082015250565b7f4f776e61626c653a2063616c6c6572206973206e6f7420746865206f776e6572600082015250565b7f4552433732313a20696e76616c696420746f6b656e2049440000000000000000600082015250565b7f4552433732313a20617070726f76616c20746f2063757272656e74206f776e6560008201527f7200000000000000000000000000000000000000000000000000000000000000602082015250565b7f4552433732313a20617070726f76652063616c6c6572206973206e6f7420746f60008201527f6b656e206f776e6572206f7220617070726f76656420666f7220616c6c000000602082015250565b7f4d696e7461626c654e46543a20496e636f7272656374207061796d656e74206160008201527f6d6f756e74000000000000000000000000000000000000000000000000000000602082015250565b7f455243373231456e756d657261626c653a20676c6f62616c20696e646578206f60008201527f7574206f6620626f756e64730000000000000000000000000000000000000000602082015250565b7f455243373231456e756d657261626c653a20636f6e736563757469766520747260008201527f616e7366657273206e6f7420737570706f727465640000000000000000000000602082015250565b7f4d696e7461626c654e46543a204d6178696d756d20737570706c79207265616360008201527f6865640000000000000000000000000000000000000000000000000000000000602082015250565b61390581613226565b811461391057600080fd5b50565b61391c81613238565b811461392757600080fd5b50565b61393381613244565b811461393e57600080fd5b50565b61394a81613290565b811461395557600080fd5b5056fea2646970667358221220d5de57f20422df3380b9c53ddf0f7f5a9413ef7e14dd3ae5f89b7218164370b564736f6c63430008010033",
  "linkReferences": {},
  "deployedLinkReferences": {}
}